{
  "contractName": "BountyBG",
  "abi": [
    {
      "constant": true,
      "inputs": [],
      "name": "bountyDuration",
      "outputs": [
        {
          "name": "",
          "type": "uint256"
        }
      ],
      "payable": false,
      "stateMutability": "view",
      "type": "function"
    },
    {
      "constant": true,
      "inputs": [],
      "name": "bountyCount",
      "outputs": [
        {
          "name": "",
          "type": "uint256"
        }
      ],
      "payable": false,
      "stateMutability": "view",
      "type": "function"
    },
    {
      "constant": true,
      "inputs": [],
      "name": "bountyBeneficiariesCount",
      "outputs": [
        {
          "name": "",
          "type": "uint256"
        }
      ],
      "payable": false,
      "stateMutability": "view",
      "type": "function"
    },
    {
      "constant": true,
      "inputs": [],
      "name": "minBounty",
      "outputs": [
        {
          "name": "",
          "type": "uint256"
        }
      ],
      "payable": false,
      "stateMutability": "view",
      "type": "function"
    },
    {
      "constant": true,
      "inputs": [],
      "name": "owner",
      "outputs": [
        {
          "name": "",
          "type": "address"
        }
      ],
      "payable": false,
      "stateMutability": "view",
      "type": "function"
    },
    {
      "constant": true,
      "inputs": [],
      "name": "bountyFee",
      "outputs": [
        {
          "name": "",
          "type": "uint256"
        }
      ],
      "payable": false,
      "stateMutability": "view",
      "type": "function"
    },
    {
      "constant": true,
      "inputs": [],
      "name": "bountyDurationPsterAllowed",
      "outputs": [
        {
          "name": "",
          "type": "uint256"
        }
      ],
      "payable": false,
      "stateMutability": "view",
      "type": "function"
    },
    {
      "constant": true,
      "inputs": [
        {
          "name": "",
          "type": "address"
        }
      ],
      "name": "bountyFeeCount",
      "outputs": [
        {
          "name": "",
          "type": "uint256"
        }
      ],
      "payable": false,
      "stateMutability": "view",
      "type": "function"
    },
    {
      "inputs": [],
      "payable": false,
      "stateMutability": "nonpayable",
      "type": "constructor"
    },
    {
      "anonymous": false,
      "inputs": [
        {
          "indexed": false,
          "name": "_msg",
          "type": "string"
        },
        {
          "indexed": false,
          "name": "_id",
          "type": "uint256"
        },
        {
          "indexed": false,
          "name": "_from",
          "type": "address"
        },
        {
          "indexed": false,
          "name": "_amount",
          "type": "uint256"
        }
      ],
      "name": "BountyStatus",
      "type": "event"
    },
    {
      "anonymous": false,
      "inputs": [
        {
          "indexed": false,
          "name": "_msg",
          "type": "string"
        },
        {
          "indexed": false,
          "name": "_id",
          "type": "uint256"
        },
        {
          "indexed": false,
          "name": "_to",
          "type": "address"
        },
        {
          "indexed": false,
          "name": "_amount",
          "type": "uint256"
        }
      ],
      "name": "RewardStatus",
      "type": "event"
    },
    {
      "anonymous": false,
      "inputs": [
        {
          "indexed": false,
          "name": "_msg",
          "type": "string"
        },
        {
          "indexed": false,
          "name": "_id",
          "type": "uint256"
        },
        {
          "indexed": false,
          "name": "_to",
          "type": "address"
        },
        {
          "indexed": false,
          "name": "_amount",
          "type": "uint256"
        }
      ],
      "name": "ErrorStatus",
      "type": "event"
    },
    {
      "constant": false,
      "inputs": [
        {
          "name": "_amount",
          "type": "uint256"
        }
      ],
      "name": "withdrawFee",
      "outputs": [],
      "payable": false,
      "stateMutability": "nonpayable",
      "type": "function"
    },
    {
      "constant": false,
      "inputs": [
        {
          "name": "_amount",
          "type": "uint256"
        },
        {
          "name": "_tokenAddress",
          "type": "address"
        }
      ],
      "name": "withdrawFeeToken",
      "outputs": [],
      "payable": false,
      "stateMutability": "nonpayable",
      "type": "function"
    },
    {
      "constant": false,
      "inputs": [
        {
          "name": "_bountyDuration",
          "type": "uint256"
        }
      ],
      "name": "setBountyDuration",
      "outputs": [],
      "payable": false,
      "stateMutability": "nonpayable",
      "type": "function"
    },
    {
      "constant": false,
      "inputs": [
        {
          "name": "_minBounty",
          "type": "uint256"
        }
      ],
      "name": "setMinBounty",
      "outputs": [],
      "payable": false,
      "stateMutability": "nonpayable",
      "type": "function"
    },
    {
      "constant": false,
      "inputs": [
        {
          "name": "_tokenAddress",
          "type": "address"
        },
        {
          "name": "_minBounty",
          "type": "uint256"
        }
      ],
      "name": "setMinBountyToken",
      "outputs": [],
      "payable": false,
      "stateMutability": "nonpayable",
      "type": "function"
    },
    {
      "constant": false,
      "inputs": [
        {
          "name": "_tokenAddress",
          "type": "address"
        },
        {
          "name": "_bountyFee",
          "type": "uint256"
        }
      ],
      "name": "setBountyFeeToken",
      "outputs": [],
      "payable": false,
      "stateMutability": "nonpayable",
      "type": "function"
    },
    {
      "constant": false,
      "inputs": [
        {
          "name": "_bountyBeneficiariesCount",
          "type": "uint256"
        }
      ],
      "name": "setBountyBeneficiariesCount",
      "outputs": [],
      "payable": false,
      "stateMutability": "nonpayable",
      "type": "function"
    },
    {
      "constant": false,
      "inputs": [
        {
          "name": "_bountyId",
          "type": "uint256"
        },
        {
          "name": "_users",
          "type": "address[]"
        },
        {
          "name": "_rewards",
          "type": "uint256[]"
        }
      ],
      "name": "rewardUsers",
      "outputs": [],
      "payable": false,
      "stateMutability": "nonpayable",
      "type": "function"
    },
    {
      "constant": false,
      "inputs": [
        {
          "name": "_bountyId",
          "type": "uint256"
        },
        {
          "name": "_user",
          "type": "address"
        },
        {
          "name": "_reward",
          "type": "uint256"
        }
      ],
      "name": "rewardUser",
      "outputs": [],
      "payable": false,
      "stateMutability": "nonpayable",
      "type": "function"
    },
    {
      "constant": false,
      "inputs": [
        {
          "name": "_bountyId",
          "type": "uint256"
        }
      ],
      "name": "createBounty",
      "outputs": [],
      "payable": true,
      "stateMutability": "payable",
      "type": "function"
    },
    {
      "constant": false,
      "inputs": [
        {
          "name": "_bountyId",
          "type": "uint256"
        },
        {
          "name": "_tokenAddress",
          "type": "address"
        }
      ],
      "name": "createBountyERC20",
      "outputs": [],
      "payable": true,
      "stateMutability": "payable",
      "type": "function"
    },
    {
      "constant": false,
      "inputs": [
        {
          "name": "_bountyId",
          "type": "uint256"
        }
      ],
      "name": "cancelBounty",
      "outputs": [],
      "payable": false,
      "stateMutability": "nonpayable",
      "type": "function"
    },
    {
      "constant": true,
      "inputs": [],
      "name": "getBalance",
      "outputs": [
        {
          "name": "",
          "type": "uint256"
        }
      ],
      "payable": false,
      "stateMutability": "view",
      "type": "function"
    },
    {
      "constant": true,
      "inputs": [
        {
          "name": "_bountyId",
          "type": "uint256"
        }
      ],
      "name": "getBounty",
      "outputs": [
        {
          "name": "",
          "type": "uint256"
        },
        {
          "name": "",
          "type": "address"
        },
        {
          "name": "",
          "type": "uint256"
        },
        {
          "name": "",
          "type": "uint256"
        },
        {
          "name": "",
          "type": "uint256"
        },
        {
          "name": "",
          "type": "uint256"
        },
        {
          "name": "",
          "type": "bool"
        },
        {
          "name": "",
          "type": "bool"
        }
      ],
      "payable": false,
      "stateMutability": "view",
      "type": "function"
    }
  ],
  "bytecode": "0x6080604052600060015566071afd498d0000600255662386f26fc1000060035560026007556201a5e06008556202a30060095534801561003e57600080fd5b50336000806101000a81548173ffffffffffffffffffffffffffffffffffffffff021916908373ffffffffffffffffffffffffffffffffffffffff1602179055506124e98061008e6000396000f300608060405260043610610128576000357c0100000000000000000000000000000000000000000000000000000000900463ffffffff16806312065fe01461012d578063179681341461015857806319de029a146101a5578063200c7770146101d2578063387d49d4146101fd5780633b58f49a1461022a5780633e362c96146102575780633f28e9fb1461028257806346db63d7146102a257806348709183146102f95780635ac25f5b1461032457806389b8db55146103645780638da5cb5b1461038f5780639baf3b11146103e6578063a101f7cd14610433578063a8a48ae81461045e578063be357616146104ab578063da6cac18146104d8578063e101ce7014610503578063e5e5dff11461055a578063ee8c4bbf14610587578063f33b1ea51461062d575b600080fd5b34801561013957600080fd5b5061014261068a565b6040518082815260200191505060405180910390f35b34801561016457600080fd5b506101a360048036038101908080359060200190929190803573ffffffffffffffffffffffffffffffffffffffff1690602001909291905050506106a9565b005b3480156101b157600080fd5b506101d0600480360381019080803590602001909291905050506108a9565b005b3480156101de57600080fd5b506101e761090e565b6040518082815260200191505060405180910390f35b34801561020957600080fd5b5061022860048036038101908080359060200190929190505050610914565b005b34801561023657600080fd5b5061025560048036038101908080359060200190929190505050610979565b005b34801561026357600080fd5b5061026c6109de565b6040518082815260200191505060405180910390f35b6102a0600480360381019080803590602001909291905050506109e4565b005b3480156102ae57600080fd5b506102f760048036038101908080359060200190929190803573ffffffffffffffffffffffffffffffffffffffff16906020019092919080359060200190929190505050610c10565b005b34801561030557600080fd5b5061030e610f25565b6040518082815260200191505060405180910390f35b61036260048036038101908080359060200190929190803573ffffffffffffffffffffffffffffffffffffffff169060200190929190505050610f2b565b005b34801561037057600080fd5b50610379611636565b6040518082815260200191505060405180910390f35b34801561039b57600080fd5b506103a461163c565b604051808273ffffffffffffffffffffffffffffffffffffffff1673ffffffffffffffffffffffffffffffffffffffff16815260200191505060405180910390f35b3480156103f257600080fd5b50610431600480360381019080803573ffffffffffffffffffffffffffffffffffffffff16906020019092919080359060200190929190505050611661565b005b34801561043f57600080fd5b50610448611704565b6040518082815260200191505060405180910390f35b34801561046a57600080fd5b506104a9600480360381019080803573ffffffffffffffffffffffffffffffffffffffff1690602001909291908035906020019092919050505061170a565b005b3480156104b757600080fd5b506104d6600480360381019080803590602001909291905050506117ad565b005b3480156104e457600080fd5b506104ed61190e565b6040518082815260200191505060405180910390f35b34801561050f57600080fd5b50610544600480360381019080803573ffffffffffffffffffffffffffffffffffffffff169060200190929190505050611914565b6040518082815260200191505060405180910390f35b34801561056657600080fd5b506105856004803603810190808035906020019092919050505061192c565b005b34801561059357600080fd5b506105b260048036038101908080359060200190929190505050611d12565b604051808981526020018873ffffffffffffffffffffffffffffffffffffffff1673ffffffffffffffffffffffffffffffffffffffff16815260200187815260200186815260200185815260200184815260200183151515158152602001821515151581526020019850505050505050505060405180910390f35b34801561063957600080fd5b5061068860048036038101908080359060200190929190803590602001908201803590602001919091929391929390803590602001908201803590602001919091929391929390505050611ecf565b005b60003073ffffffffffffffffffffffffffffffffffffffff1631905090565b60008060009054906101000a900473ffffffffffffffffffffffffffffffffffffffff1673ffffffffffffffffffffffffffffffffffffffff163373ffffffffffffffffffffffffffffffffffffffff1614151561070657600080fd5b600660008373ffffffffffffffffffffffffffffffffffffffff1673ffffffffffffffffffffffffffffffffffffffff16815260200190815260200160002054831115151561075457600080fd5b82600660008473ffffffffffffffffffffffffffffffffffffffff1673ffffffffffffffffffffffffffffffffffffffff168152602001908152602001600020600082825403925050819055508190508073ffffffffffffffffffffffffffffffffffffffff1663a9059cbb6000809054906101000a900473ffffffffffffffffffffffffffffffffffffffff16856040518363ffffffff167c0100000000000000000000000000000000000000000000000000000000028152600401808373ffffffffffffffffffffffffffffffffffffffff1673ffffffffffffffffffffffffffffffffffffffff16815260200182815260200192505050602060405180830381600087803b15801561086857600080fd5b505af115801561087c573d6000803e3d6000fd5b505050506040513d602081101561089257600080fd5b810190808051906020019092919050505050505050565b6000809054906101000a900473ffffffffffffffffffffffffffffffffffffffff1673ffffffffffffffffffffffffffffffffffffffff163373ffffffffffffffffffffffffffffffffffffffff1614151561090457600080fd5b8060088190555050565b60085481565b6000809054906101000a900473ffffffffffffffffffffffffffffffffffffffff1673ffffffffffffffffffffffffffffffffffffffff163373ffffffffffffffffffffffffffffffffffffffff1614151561096f57600080fd5b8060078190555050565b6000809054906101000a900473ffffffffffffffffffffffffffffffffffffffff1673ffffffffffffffffffffffffffffffffffffffff163373ffffffffffffffffffffffffffffffffffffffff161415156109d457600080fd5b8060038190555050565b60015481565b60006002546003540134101515156109fb57600080fd5b600a6000838152602001908152602001600020905060008160000154141515610a2357600080fd5b600160008154809291906001019190505550818160000181905550600254340381600201819055508060020154816004018190555060008160030160006101000a81548160ff02191690836001811115610a7957fe5b0217905550308160030160016101000a81548173ffffffffffffffffffffffffffffffffffffffff021916908373ffffffffffffffffffffffffffffffffffffffff160217905550600254600660003073ffffffffffffffffffffffffffffffffffffffff1673ffffffffffffffffffffffffffffffffffffffff16815260200190815260200160002060008282540192505081905550428160050181905550338160010160006101000a81548173ffffffffffffffffffffffffffffffffffffffff021916908373ffffffffffffffffffffffffffffffffffffffff1602179055507f23babfd039d586b6caf3dc1e2a2877007b714e2e0b4e6ace096cb2db62527c408160000154333460405180806020018581526020018473ffffffffffffffffffffffffffffffffffffffff1673ffffffffffffffffffffffffffffffffffffffff168152602001838152602001828103825260108152602001807f426f756e7479207375626d69747465640000000000000000000000000000000081525060200194505050505060405180910390a15050565b600080600085600a600082815260200190815260200160002060010160009054906101000a900473ffffffffffffffffffffffffffffffffffffffff1673ffffffffffffffffffffffffffffffffffffffff163373ffffffffffffffffffffffffffffffffffffffff16141515610c8657600080fd5b600a6000888152602001908152602001600020935084846004015410151515610cae57600080fd5b84846004016000828254039250508190555060018460070160006101000a81548160ff02191690831515021790555042846006018190555060006001811115610cf357fe5b8460030160009054906101000a900460ff166001811115610d1057fe5b1415610d62578573ffffffffffffffffffffffffffffffffffffffff166108fc869081150290604051600060405180830381858888f19350505050158015610d5c573d6000803e3d6000fd5b50610e6c565b8360030160019054906101000a900473ffffffffffffffffffffffffffffffffffffffff1692508291508173ffffffffffffffffffffffffffffffffffffffff1663a9059cbb87876040518363ffffffff167c0100000000000000000000000000000000000000000000000000000000028152600401808373ffffffffffffffffffffffffffffffffffffffff1673ffffffffffffffffffffffffffffffffffffffff16815260200182815260200192505050602060405180830381600087803b158015610e2f57600080fd5b505af1158015610e43573d6000803e3d6000fd5b505050506040513d6020811015610e5957600080fd5b8101908080519060200190929190505050505b7fb57b05cd907162c8a48d0e2cfe044234b9cf1e00620758f8ad57bccccd17bfba8460000154878760405180806020018581526020018473ffffffffffffffffffffffffffffffffffffffff1673ffffffffffffffffffffffffffffffffffffffff1681526020018381526020018281038252600b8152602001807f5265776172642073656e7400000000000000000000000000000000000000000081525060200194505050505060405180910390a150505050505050565b60075481565b60008060008392506000600560008673ffffffffffffffffffffffffffffffffffffffff1673ffffffffffffffffffffffffffffffffffffffff16815260200190815260200160002054118015610fc157506000600460008673ffffffffffffffffffffffffffffffffffffffff1673ffffffffffffffffffffffffffffffffffffffff16815260200190815260200160002054115b80156111565750600460008573ffffffffffffffffffffffffffffffffffffffff1673ffffffffffffffffffffffffffffffffffffffff16815260200190815260200160002054600560008673ffffffffffffffffffffffffffffffffffffffff1673ffffffffffffffffffffffffffffffffffffffff16815260200190815260200160002054018373ffffffffffffffffffffffffffffffffffffffff1663dd62ed3e33306040518363ffffffff167c0100000000000000000000000000000000000000000000000000000000028152600401808373ffffffffffffffffffffffffffffffffffffffff1673ffffffffffffffffffffffffffffffffffffffff1681526020018273ffffffffffffffffffffffffffffffffffffffff1673ffffffffffffffffffffffffffffffffffffffff16815260200192505050602060405180830381600087803b15801561111857600080fd5b505af115801561112c573d6000803e3d6000fd5b505050506040513d602081101561114257600080fd5b810190808051906020019092919050505010155b151561116157600080fd5b8273ffffffffffffffffffffffffffffffffffffffff1663dd62ed3e33306040518363ffffffff167c0100000000000000000000000000000000000000000000000000000000028152600401808373ffffffffffffffffffffffffffffffffffffffff1673ffffffffffffffffffffffffffffffffffffffff1681526020018273ffffffffffffffffffffffffffffffffffffffff1673ffffffffffffffffffffffffffffffffffffffff16815260200192505050602060405180830381600087803b15801561123057600080fd5b505af1158015611244573d6000803e3d6000fd5b505050506040513d602081101561125a57600080fd5b810190808051906020019092919050505091508273ffffffffffffffffffffffffffffffffffffffff166323b872dd3330856040518463ffffffff167c0100000000000000000000000000000000000000000000000000000000028152600401808473ffffffffffffffffffffffffffffffffffffffff1673ffffffffffffffffffffffffffffffffffffffff1681526020018373ffffffffffffffffffffffffffffffffffffffff1673ffffffffffffffffffffffffffffffffffffffff1681526020018281526020019350505050602060405180830381600087803b15801561134457600080fd5b505af1158015611358573d6000803e3d6000fd5b505050506040513d602081101561136e57600080fd5b810190808051906020019092919050505050600a60008681526020019081526020016000209050600081600001541415156113a857600080fd5b600160008154809291906001019190505550848160000181905550600460008573ffffffffffffffffffffffffffffffffffffffff1673ffffffffffffffffffffffffffffffffffffffff16815260200190815260200160002054820381600201819055508060020154816004018190555060018160030160006101000a81548160ff0219169083600181111561143b57fe5b0217905550838160030160016101000a81548173ffffffffffffffffffffffffffffffffffffffff021916908373ffffffffffffffffffffffffffffffffffffffff160217905550600460008573ffffffffffffffffffffffffffffffffffffffff1673ffffffffffffffffffffffffffffffffffffffff16815260200190815260200160002054600660008360030160019054906101000a900473ffffffffffffffffffffffffffffffffffffffff1673ffffffffffffffffffffffffffffffffffffffff1673ffffffffffffffffffffffffffffffffffffffff16815260200190815260200160002060008282540192505081905550428160050181905550338160010160006101000a81548173ffffffffffffffffffffffffffffffffffffffff021916908373ffffffffffffffffffffffffffffffffffffffff1602179055507f23babfd039d586b6caf3dc1e2a2877007b714e2e0b4e6ace096cb2db62527c408160000154338460405180806020018581526020018473ffffffffffffffffffffffffffffffffffffffff1673ffffffffffffffffffffffffffffffffffffffff1681526020018381526020018281038252601b8152602001807f426f756e7479207375626d69747465642077697468204552433230000000000081525060200194505050505060405180910390a15050505050565b60035481565b6000809054906101000a900473ffffffffffffffffffffffffffffffffffffffff1681565b6000809054906101000a900473ffffffffffffffffffffffffffffffffffffffff1673ffffffffffffffffffffffffffffffffffffffff163373ffffffffffffffffffffffffffffffffffffffff161415156116bc57600080fd5b80600460008473ffffffffffffffffffffffffffffffffffffffff1673ffffffffffffffffffffffffffffffffffffffff168152602001908152602001600020819055505050565b60025481565b6000809054906101000a900473ffffffffffffffffffffffffffffffffffffffff1673ffffffffffffffffffffffffffffffffffffffff163373ffffffffffffffffffffffffffffffffffffffff1614151561176557600080fd5b80600560008473ffffffffffffffffffffffffffffffffffffffff1673ffffffffffffffffffffffffffffffffffffffff168152602001908152602001600020819055505050565b6000809054906101000a900473ffffffffffffffffffffffffffffffffffffffff1673ffffffffffffffffffffffffffffffffffffffff163373ffffffffffffffffffffffffffffffffffffffff1614151561180857600080fd5b600660003073ffffffffffffffffffffffffffffffffffffffff1673ffffffffffffffffffffffffffffffffffffffff16815260200190815260200160002054811115151561185657600080fd5b80600660003073ffffffffffffffffffffffffffffffffffffffff1673ffffffffffffffffffffffffffffffffffffffff168152602001908152602001600020600082825403925050819055506000809054906101000a900473ffffffffffffffffffffffffffffffffffffffff1673ffffffffffffffffffffffffffffffffffffffff166108fc829081150290604051600060405180830381858888f1935050505015801561190a573d6000803e3d6000fd5b5050565b60095481565b60066020528060005260406000206000915090505481565b6000806000600a600085815260200190815260200160002092508260010160009054906101000a900473ffffffffffffffffffffffffffffffffffffffff1673ffffffffffffffffffffffffffffffffffffffff163373ffffffffffffffffffffffffffffffffffffffff161480156119b457508260070160009054906101000a900460ff16155b80156119cf57508260070160019054906101000a900460ff16155b8015611a2a57503373ffffffffffffffffffffffffffffffffffffffff168360010160009054906101000a900473ffffffffffffffffffffffffffffffffffffffff1673ffffffffffffffffffffffffffffffffffffffff16145b8015611a3d575042600854846005015401105b1515611a4857600080fd5b60018360070160006101000a81548160ff02191690831515021790555060018360070160016101000a81548160ff02191690831515021790555060006001811115611a8f57fe5b8360030160009054906101000a900460ff166001811115611aac57fe5b1415611b26578260010160009054906101000a900473ffffffffffffffffffffffffffffffffffffffff1673ffffffffffffffffffffffffffffffffffffffff166108fc84600201549081150290604051600060405180830381858888f19350505050158015611b20573d6000803e3d6000fd5b50611c58565b8260030160019054906101000a900473ffffffffffffffffffffffffffffffffffffffff1691508190508073ffffffffffffffffffffffffffffffffffffffff1663095ea7b38460010160009054906101000a900473ffffffffffffffffffffffffffffffffffffffff1685600201546040518363ffffffff167c0100000000000000000000000000000000000000000000000000000000028152600401808373ffffffffffffffffffffffffffffffffffffffff1673ffffffffffffffffffffffffffffffffffffffff16815260200182815260200192505050602060405180830381600087803b158015611c1b57600080fd5b505af1158015611c2f573d6000803e3d6000fd5b505050506040513d6020811015611c4557600080fd5b8101908080519060200190929190505050505b7f23babfd039d586b6caf3dc1e2a2877007b714e2e0b4e6ace096cb2db62527c40836000015433856002015460405180806020018581526020018473ffffffffffffffffffffffffffffffffffffffff1673ffffffffffffffffffffffffffffffffffffffff168152602001838152602001828103825260138152602001807f426f756e7479207761732063616e63656c65640000000000000000000000000081525060200194505050505060405180910390a150505050565b600080600080600080600080611d2661242e565b600a60008b81526020019081526020016000206101406040519081016040529081600082015481526020016001820160009054906101000a900473ffffffffffffffffffffffffffffffffffffffff1673ffffffffffffffffffffffffffffffffffffffff1673ffffffffffffffffffffffffffffffffffffffff168152602001600282015481526020016003820160009054906101000a900460ff166001811115611dce57fe5b6001811115611dd957fe5b81526020016003820160019054906101000a900473ffffffffffffffffffffffffffffffffffffffff1673ffffffffffffffffffffffffffffffffffffffff1673ffffffffffffffffffffffffffffffffffffffff1681526020016004820154815260200160058201548152602001600682015481526020016007820160009054906101000a900460ff161515151581526020016007820160019054906101000a900460ff16151515158152505090508060000151816020015182604001518360a001518460c001518560e001518661010001518761012001519850985098509850985098509850985050919395975091939597565b600080600080600089600a600082815260200190815260200160002060010160009054906101000a900473ffffffffffffffffffffffffffffffffffffffff1673ffffffffffffffffffffffffffffffffffffffff163373ffffffffffffffffffffffffffffffffffffffff161480611fb957506000809054906101000a900473ffffffffffffffffffffffffffffffffffffffff1673ffffffffffffffffffffffffffffffffffffffff163373ffffffffffffffffffffffffffffffffffffffff16148015611fb8575042600954600a60008481526020019081526020016000206005015401115b5b1515611fc457600080fd5b600a60008c815260200190815260200160002095508560070160009054906101000a900460ff1615801561200757508560070160019054906101000a900460ff16155b801561201a575042600854876005015401115b8015612029575060008a8a9050115b801561203a57506007548a8a905011155b801561204b5750878790508a8a9050145b151561205657600080fd5b60018660070160006101000a81548160ff02191690831515021790555042866006018190555060009450600093505b878790508460ff1610156120bc5787878560ff1681811015156120a457fe5b90506020020135850194508380600101945050612085565b848660020154101515156120cf57600080fd5b6001808111156120db57fe5b8660030160009054906101000a900460ff1660018111156120f857fe5b1415612129578560030160019054906101000a900473ffffffffffffffffffffffffffffffffffffffff1692508291505b600093505b898990508460ff161015612421576000600181111561214957fe5b8660030160009054906101000a900460ff16600181111561216657fe5b14156121fc5789898560ff16818110151561217d57fe5b9050602002013573ffffffffffffffffffffffffffffffffffffffff1673ffffffffffffffffffffffffffffffffffffffff166108fc89898760ff1681811015156121c457fe5b905060200201359081150290604051600060405180830381858888f193505050501580156121f6573d6000803e3d6000fd5b50612320565b8173ffffffffffffffffffffffffffffffffffffffff1663a9059cbb8b8b8760ff16818110151561222957fe5b9050602002013573ffffffffffffffffffffffffffffffffffffffff168a8a8860ff16818110151561225757fe5b905060200201356040518363ffffffff167c0100000000000000000000000000000000000000000000000000000000028152600401808373ffffffffffffffffffffffffffffffffffffffff1673ffffffffffffffffffffffffffffffffffffffff16815260200182815260200192505050602060405180830381600087803b1580156122e357600080fd5b505af11580156122f7573d6000803e3d6000fd5b505050506040513d602081101561230d57600080fd5b8101908080519060200190929190505050505b7fb57b05cd907162c8a48d0e2cfe044234b9cf1e00620758f8ad57bccccd17bfba86600001548b8b8760ff16818110151561235757fe5b9050602002013573ffffffffffffffffffffffffffffffffffffffff168a8a8860ff16818110151561238557fe5b9050602002013560405180806020018581526020018473ffffffffffffffffffffffffffffffffffffffff1673ffffffffffffffffffffffffffffffffffffffff1681526020018381526020018281038252600b8152602001807f5265776172642073656e7400000000000000000000000000000000000000000081525060200194505050505060405180910390a1838060010194505061212e565b5050505050505050505050565b6101406040519081016040528060008152602001600073ffffffffffffffffffffffffffffffffffffffff168152602001600081526020016000600181111561247357fe5b8152602001600073ffffffffffffffffffffffffffffffffffffffff16815260200160008152602001600081526020016000815260200160001515815260200160001515815250905600a165627a7a72305820b31bb6c1b056094c25c0d7d6095f2a93fdf6def18090aa204c4b12f185a239eb0029",
  "source": "pragma solidity ^0.4.23;\r\nimport \"./ERC20Interface.sol\";\r\n\r\n\r\n/**\r\n @title BountyBG contract to allow ones posting their bounties and in turn \r\n * reward others have done bounty projects.\r\n */\r\ncontract BountyBG {\r\n\r\n    address public owner;\r\n\r\n    uint256 public bountyCount = 0;\r\n    \r\n    uint256 public bountyFee = 2 finney;\r\n    uint256 public minBounty = 10 finney;\r\n    \r\n    mapping (address => uint256) bountyFeeToken;\r\n    mapping (address => uint256) minBountyToken;\r\n\r\n    enum paymentType {ETHER, ERC20}\r\n\r\n    mapping (address => uint256) public bountyFeeCount;\r\n\r\n    uint256 public bountyBeneficiariesCount = 2;\r\n    uint256 public bountyDuration = 30 hours;\r\n    uint256 public bountyDurationPsterAllowed = 48 hours;     \r\n\r\n    mapping(uint256 => Bounty) bountyAt;\r\n\r\n    event BountyStatus(string _msg, uint256 _id, address _from, uint256 _amount);\r\n    event RewardStatus(string _msg, uint256 _id, address _to, uint256 _amount);\r\n    event ErrorStatus(string _msg, uint256 _id, address _to, uint256 _amount);\r\n\r\n    struct Bounty {\r\n        uint256 id;\r\n        address owner;\r\n        uint256 bounty;\r\n        paymentType payment;\r\n        address tokenAddress;\r\n        uint256 remainingBounty;\r\n        uint256 startTime;\r\n        uint256 endTime;\r\n        bool ended;\r\n        bool retracted;\r\n    }\r\n\r\n    constructor() public {\r\n        owner = msg.sender;\r\n    }\r\n\r\n    /**\r\n     * @dev Throws if called by any account other than the owner.\r\n     */\r\n    modifier onlyOwner() {\r\n        require(msg.sender == owner);\r\n        _;\r\n    }\r\n\r\n    /**\r\n     * @dev Throws if called by any account other than the bounty poster.\r\n     */\r\n    modifier onlyPoster(uint _bountyId) {\r\n        require(msg.sender == bountyAt[_bountyId].owner);\r\n        _;\r\n    }\r\n\r\n    /**\r\n     * @dev Throws if called by any account other than the bounty poster OR \r\n     * the contract owner only after the bounty deadline.\r\n     */\r\n    modifier allowedToReward(uint _bountyId) {\r\n        require(\r\n            msg.sender == bountyAt[_bountyId].owner || \r\n            ((msg.sender == owner) && \r\n            (bountyAt[_bountyId].startTime + bountyDurationPsterAllowed > block.timestamp)));\r\n        _;\r\n    }\r\n\r\n    /**\r\n     * @dev Withdraw an amount of Ether to the contract owner. Could be called only by owner.\r\n     * @param _amount The amount of Eth must be transfered to the owner address.\r\n     */\r\n    function withdrawFee(uint256 _amount) external onlyOwner {\r\n        require(_amount <= bountyFeeCount[this]);\r\n        bountyFeeCount[this] -= _amount;\r\n        owner.transfer(_amount);\r\n    }\r\n\r\n    /**\r\n     * @dev Withdraw an amount of tokens of an ERC20 token to the contract owner. Could be called only by owner.\r\n     * @param _amount The amount of Eth must be transfered to the owner address.\r\n     * @param _tokenAddress The address of ERC20 Token contract.\r\n     */\r\n    function withdrawFeeToken(uint256 _amount, address _tokenAddress) external onlyOwner{\r\n        require(_amount <= bountyFeeCount[_tokenAddress]);\r\n        bountyFeeCount[_tokenAddress] -= _amount;\r\n        ERC20Interface token = ERC20Interface(_tokenAddress);\r\n        token.transfer(owner, _amount);\r\n    }\r\n\r\n    /**\r\n     * @dev sets the duration of bounty projects.\r\n     * @param _bountyDuration the duration of bounty project must be set.\r\n     */\r\n    function setBountyDuration(uint256 _bountyDuration) external onlyOwner {\r\n        bountyDuration = _bountyDuration;\r\n    }\r\n\r\n    /**\r\n     * @dev sets minimum amount of Ethers can be assigned as bounty rewards.\r\n     * @param _minBounty minimum amount of Ethers for bounty rewards.\r\n     */\r\n    function setMinBounty(uint256 _minBounty) external onlyOwner {\r\n        minBounty = _minBounty;\r\n    }\r\n\r\n    /**\r\n     * @dev sets minimum token amount of a specified ERC20 Token.\r\n     * @param _tokenAddress the token contract address.\r\n     * @param _minBounty minimum bounty amount in token unit.\r\n     */\r\n    function setMinBountyToken(address _tokenAddress, uint256 _minBounty) external onlyOwner {\r\n        minBountyToken[_tokenAddress] = _minBounty;\r\n    }\r\n\r\n    /**\r\n     * @dev determines bounty fee in the unit of a specified ERC20 Token.\r\n     * @param _tokenAddress the token contract address.\r\n     * @param _bountyFee bounty Fee in token unit.\r\n     */\r\n    function setBountyFeeToken(address _tokenAddress, uint256 _bountyFee) external onlyOwner {\r\n        bountyFeeToken[_tokenAddress] = _bountyFee;\r\n    }\r\n\r\n    /**\r\n     * @dev sets number of beneficiaries of bounty projects.\r\n     * @param _bountyBeneficiariesCount \r\n     */\r\n    function setBountyBeneficiariesCount(uint256 _bountyBeneficiariesCount) external onlyOwner {\r\n        bountyBeneficiariesCount = _bountyBeneficiariesCount;\r\n    }\r\n\r\n    /**\r\n     * @dev transfers the specified amount of Ethers or ERC20 tokens to a set of users' addresses.\r\n     * @param _bountyId bounty project id.\r\n     * @param _users an array of users must be rewarded.\r\n     * @param _rewards an array of Ether or Token amounts corresponded to users.\r\n\r\n     */\r\n    function rewardUsers(uint256 _bountyId, address[] _users, uint256[] _rewards) external allowedToReward(_bountyId) {\r\n        Bounty storage bounty = bountyAt[_bountyId];\r\n        require(\r\n            !bounty.ended &&\r\n            !bounty.retracted &&\r\n            bounty.startTime + bountyDuration > block.timestamp &&\r\n            _users.length > 0 &&\r\n            _users.length <= bountyBeneficiariesCount &&\r\n            _users.length == _rewards.length\r\n        );\r\n\r\n        bounty.ended = true;\r\n        bounty.endTime = block.timestamp;\r\n        uint256 currentRewards = 0;\r\n        for (uint8 i = 0; i < _rewards.length; i++) {\r\n            currentRewards += _rewards[i];\r\n        }\r\n\r\n        require(bounty.bounty >= currentRewards);\r\n\r\n        if (bounty.payment == paymentType.ERC20) {\r\n            address tokenAddress = bounty.tokenAddress;\r\n            ERC20Interface token = ERC20Interface(tokenAddress);\r\n        }\r\n\r\n        for (i = 0; i < _users.length; i++) {\r\n            if (bounty.payment == paymentType.ETHER) {\r\n                _users[i].transfer(_rewards[i]);    \r\n            } else {\r\n                token.transfer(_users[i], _rewards[i]);\r\n            }\r\n            \r\n            emit RewardStatus(\"Reward sent\", bounty.id, _users[i], _rewards[i]);\r\n            /* if (_users[i].send(_rewards[i])) {\r\n                bounty.remainingBounty -= _rewards[i];\r\n                RewardStatus(\"Reward sent\", bounty.id, _users[i], _rewards[i]);\r\n            } else {\r\n                ErrorStatus(\"Error in reward\", bounty.id, _users[i], _rewards[i]);\r\n            } */\r\n        }\r\n    }\r\n\r\n    /**\r\n     * @dev transfers a specified amount of Ethers or Tokens to a determined user.\r\n     * @param _bountyId bounty project id.\r\n     * @param _user the intended user to be rewarded.\r\n     * @param _reward the amount of Ethers or Tokens must be rewarded.\r\n     */\r\n    function rewardUser(uint256 _bountyId, address _user, uint256 _reward) external onlyPoster(_bountyId) {\r\n        Bounty storage bounty = bountyAt[_bountyId];\r\n        require(bounty.remainingBounty >= _reward);\r\n        \r\n        bounty.remainingBounty -= _reward;\r\n        bounty.ended = true;\r\n        bounty.endTime = block.timestamp;\r\n        \r\n        if (bounty.payment == paymentType.ETHER) {\r\n            _user.transfer(_reward);\r\n        } else {\r\n            address tokenAddress = bounty.tokenAddress;\r\n            ERC20Interface token = ERC20Interface(tokenAddress);\r\n            token.transfer(_user, _reward);\r\n        }\r\n\r\n        emit RewardStatus(\"Reward sent\", bounty.id, _user, _reward);\r\n    }\r\n\r\n    /**\r\n     * @dev creates a new bounty project with the payment of ETHER and sets its parameters.\r\n     * @param _bountyId bounty project id.\r\n     * (!!! _bountyId param seems to be unnecessary. actually bounty id must be set automatically not manually.)\r\n     */\r\n    function createBounty(uint256 _bountyId) external payable {\r\n        require(\r\n            msg.value >= minBounty + bountyFee\r\n        );\r\n        Bounty storage bounty = bountyAt[_bountyId];\r\n        require(bounty.id == 0);\r\n        bountyCount++;\r\n        bounty.id = _bountyId;\r\n        bounty.bounty = msg.value - bountyFee;\r\n        bounty.remainingBounty = bounty.bounty;\r\n        bounty.payment = paymentType.ETHER;\r\n        bounty.tokenAddress = this;\r\n        bountyFeeCount[this] += bountyFee;\r\n        bounty.startTime = block.timestamp;\r\n        bounty.owner = msg.sender;\r\n        emit BountyStatus(\"Bounty submitted\", bounty.id, msg.sender, msg.value);\r\n    }\r\n\r\n    /**\r\n     * @dev creates a new bounty project with the payment of an ERC20 Token and sets its parameters.\r\n     * @param _bountyId bounty project id.\r\n     * @param _tokenAddress ERC20 Token contract address.\r\n     * (!!! _bountyId param seems to be unnecessary. actually bounty id must be set automatically not manually.)\r\n     */\r\n    function createBountyERC20(uint256 _bountyId, address _tokenAddress) external payable {\r\n        ERC20Interface token = ERC20Interface(_tokenAddress);\r\n        require(\r\n            minBountyToken[_tokenAddress] > 0 &&\r\n            bountyFeeToken[_tokenAddress] > 0 &&\r\n            token.allowance(msg.sender, this) >= minBountyToken[_tokenAddress] + bountyFeeToken[_tokenAddress]\r\n        );\r\n        uint256 bountyAmount = token.allowance(msg.sender, this);\r\n        token.transferFrom(msg.sender, this, bountyAmount);\r\n        Bounty storage bounty = bountyAt[_bountyId];\r\n        require(bounty.id == 0);\r\n        bountyCount++;\r\n        bounty.id = _bountyId;\r\n        bounty.bounty = bountyAmount - bountyFeeToken[_tokenAddress];\r\n        bounty.remainingBounty = bounty.bounty;\r\n        bounty.payment = paymentType.ERC20;\r\n        bounty.tokenAddress = _tokenAddress;\r\n        bountyFeeCount[bounty.tokenAddress] += bountyFeeToken[_tokenAddress];\r\n        bounty.startTime = block.timestamp;\r\n        bounty.owner = msg.sender;\r\n        emit BountyStatus(\"Bounty submitted with ERC20\", bounty.id, msg.sender, bountyAmount);\r\n    }\r\n\r\n    /**\r\n     * @dev cancels a bounty corresponding to a specified bounty id.\r\n     * @param _bountyId bounty project id.\r\n     */\r\n    function cancelBounty(uint256 _bountyId) external {\r\n        Bounty storage bounty = bountyAt[_bountyId];\r\n        require(\r\n            msg.sender == bounty.owner &&\r\n            !bounty.ended &&\r\n            !bounty.retracted &&\r\n            bounty.owner == msg.sender &&\r\n            bounty.startTime + bountyDuration < block.timestamp\r\n        );\r\n        bounty.ended = true;\r\n        bounty.retracted = true;\r\n        if (bounty.payment == paymentType.ETHER) {\r\n            bounty.owner.transfer(bounty.bounty);\r\n        } else {\r\n            address tokenAddress = bounty.tokenAddress;\r\n            ERC20Interface token = ERC20Interface(tokenAddress);\r\n            token.approve(bounty.owner, bounty.bounty);\r\n        }\r\n        emit BountyStatus(\"Bounty was canceled\", bounty.id, msg.sender, bounty.bounty);\r\n    }\r\n\r\n    /**\r\n     * @dev returns the amount of Ethers stored in the contract.\r\n     */\r\n    function getBalance() external view returns (uint256) {\r\n        return address(this).balance;\r\n    }\r\n\r\n    /**\r\n     * @dev returns the parametrs of a specified bounty.\r\n     * @param _bountyId bounty project id.\r\n     */\r\n    function getBounty(uint256 _bountyId) external view\r\n    returns (uint256, address, uint256, uint256, uint256, uint256, bool, bool) {\r\n        Bounty memory bounty = bountyAt[_bountyId];\r\n        return (\r\n            bounty.id,\r\n            bounty.owner,\r\n            bounty.bounty,\r\n            bounty.remainingBounty,\r\n            bounty.startTime,\r\n            bounty.endTime,\r\n            bounty.ended,\r\n            bounty.retracted\r\n        );\r\n    }\r\n\r\n}",
  "sourcePath": "G:\\Root\\Blockchain\\BountyBG Web3\\contracts\\bountyBg.sol",
  "compiler": {
    "name": "solc",
    "version": "0.4.23+commit.124ca40d.Emscripten.clang"
  },
  "schemaVersion": "2.0.0",
  "updatedAt": "2018-08-06T11:21:40.704Z"
}