{
  "contractName": "BountyBG",
  "abi": [
    {
      "constant": true,
      "inputs": [],
      "name": "bountyDuration",
      "outputs": [
        {
          "name": "",
          "type": "uint256"
        }
      ],
      "payable": false,
      "stateMutability": "view",
      "type": "function"
    },
    {
      "constant": true,
      "inputs": [],
      "name": "bountyCount",
      "outputs": [
        {
          "name": "",
          "type": "uint256"
        }
      ],
      "payable": false,
      "stateMutability": "view",
      "type": "function"
    },
    {
      "constant": true,
      "inputs": [],
      "name": "bountyBeneficiariesCount",
      "outputs": [
        {
          "name": "",
          "type": "uint256"
        }
      ],
      "payable": false,
      "stateMutability": "view",
      "type": "function"
    },
    {
      "constant": true,
      "inputs": [],
      "name": "bountyDurationPosterAllowed",
      "outputs": [
        {
          "name": "",
          "type": "uint256"
        }
      ],
      "payable": false,
      "stateMutability": "view",
      "type": "function"
    },
    {
      "constant": true,
      "inputs": [],
      "name": "minBounty",
      "outputs": [
        {
          "name": "",
          "type": "uint256"
        }
      ],
      "payable": false,
      "stateMutability": "view",
      "type": "function"
    },
    {
      "constant": true,
      "inputs": [],
      "name": "owner",
      "outputs": [
        {
          "name": "",
          "type": "address"
        }
      ],
      "payable": false,
      "stateMutability": "view",
      "type": "function"
    },
    {
      "constant": true,
      "inputs": [],
      "name": "bountyFee",
      "outputs": [
        {
          "name": "",
          "type": "uint256"
        }
      ],
      "payable": false,
      "stateMutability": "view",
      "type": "function"
    },
    {
      "constant": true,
      "inputs": [
        {
          "name": "",
          "type": "address"
        }
      ],
      "name": "bountyFeeCount",
      "outputs": [
        {
          "name": "",
          "type": "uint256"
        }
      ],
      "payable": false,
      "stateMutability": "view",
      "type": "function"
    },
    {
      "inputs": [],
      "payable": false,
      "stateMutability": "nonpayable",
      "type": "constructor"
    },
    {
      "anonymous": false,
      "inputs": [
        {
          "indexed": false,
          "name": "_msg",
          "type": "string"
        },
        {
          "indexed": false,
          "name": "_id",
          "type": "uint256"
        },
        {
          "indexed": false,
          "name": "_from",
          "type": "address"
        },
        {
          "indexed": false,
          "name": "_amount",
          "type": "uint256"
        }
      ],
      "name": "BountyStatus",
      "type": "event"
    },
    {
      "anonymous": false,
      "inputs": [
        {
          "indexed": false,
          "name": "_msg",
          "type": "string"
        },
        {
          "indexed": false,
          "name": "_id",
          "type": "uint256"
        },
        {
          "indexed": false,
          "name": "_to",
          "type": "address"
        },
        {
          "indexed": false,
          "name": "_amount",
          "type": "uint256"
        }
      ],
      "name": "RewardStatus",
      "type": "event"
    },
    {
      "anonymous": false,
      "inputs": [
        {
          "indexed": false,
          "name": "_msg",
          "type": "string"
        },
        {
          "indexed": false,
          "name": "_id",
          "type": "uint256"
        },
        {
          "indexed": false,
          "name": "_to",
          "type": "address"
        },
        {
          "indexed": false,
          "name": "_amount",
          "type": "uint256"
        }
      ],
      "name": "ErrorStatus",
      "type": "event"
    },
    {
      "constant": false,
      "inputs": [
        {
          "name": "_amount",
          "type": "uint256"
        }
      ],
      "name": "withdrawFee",
      "outputs": [],
      "payable": false,
      "stateMutability": "nonpayable",
      "type": "function"
    },
    {
      "constant": false,
      "inputs": [
        {
          "name": "_amount",
          "type": "uint256"
        },
        {
          "name": "_tokenAddress",
          "type": "address"
        }
      ],
      "name": "withdrawFeeToken",
      "outputs": [],
      "payable": false,
      "stateMutability": "nonpayable",
      "type": "function"
    },
    {
      "constant": false,
      "inputs": [
        {
          "name": "_bountyDuration",
          "type": "uint256"
        }
      ],
      "name": "setBountyDuration",
      "outputs": [],
      "payable": false,
      "stateMutability": "nonpayable",
      "type": "function"
    },
    {
      "constant": false,
      "inputs": [
        {
          "name": "_minBounty",
          "type": "uint256"
        }
      ],
      "name": "setMinBounty",
      "outputs": [],
      "payable": false,
      "stateMutability": "nonpayable",
      "type": "function"
    },
    {
      "constant": false,
      "inputs": [
        {
          "name": "_tokenAddress",
          "type": "address"
        },
        {
          "name": "_minBounty",
          "type": "uint256"
        }
      ],
      "name": "setMinBountyToken",
      "outputs": [],
      "payable": false,
      "stateMutability": "nonpayable",
      "type": "function"
    },
    {
      "constant": true,
      "inputs": [
        {
          "name": "_tokenAddress",
          "type": "address"
        }
      ],
      "name": "getMinBountyToken",
      "outputs": [
        {
          "name": "",
          "type": "uint256"
        }
      ],
      "payable": false,
      "stateMutability": "view",
      "type": "function"
    },
    {
      "constant": false,
      "inputs": [
        {
          "name": "_tokenAddress",
          "type": "address"
        },
        {
          "name": "_bountyFee",
          "type": "uint256"
        }
      ],
      "name": "setBountyFeeToken",
      "outputs": [],
      "payable": false,
      "stateMutability": "nonpayable",
      "type": "function"
    },
    {
      "constant": true,
      "inputs": [
        {
          "name": "_tokenAddress",
          "type": "address"
        }
      ],
      "name": "getBountyFeeToken",
      "outputs": [
        {
          "name": "",
          "type": "uint256"
        }
      ],
      "payable": false,
      "stateMutability": "view",
      "type": "function"
    },
    {
      "constant": false,
      "inputs": [
        {
          "name": "_bountyBeneficiariesCount",
          "type": "uint256"
        }
      ],
      "name": "setBountyBeneficiariesCount",
      "outputs": [],
      "payable": false,
      "stateMutability": "nonpayable",
      "type": "function"
    },
    {
      "constant": false,
      "inputs": [
        {
          "name": "_bountyId",
          "type": "uint256"
        },
        {
          "name": "_users",
          "type": "address[]"
        },
        {
          "name": "_rewards",
          "type": "uint256[]"
        }
      ],
      "name": "rewardUsers",
      "outputs": [],
      "payable": false,
      "stateMutability": "nonpayable",
      "type": "function"
    },
    {
      "constant": false,
      "inputs": [
        {
          "name": "_bountyId",
          "type": "uint256"
        },
        {
          "name": "_user",
          "type": "address"
        },
        {
          "name": "_reward",
          "type": "uint256"
        }
      ],
      "name": "rewardUser",
      "outputs": [],
      "payable": false,
      "stateMutability": "nonpayable",
      "type": "function"
    },
    {
      "constant": false,
      "inputs": [
        {
          "name": "_bountyId",
          "type": "uint256"
        }
      ],
      "name": "createBounty",
      "outputs": [],
      "payable": true,
      "stateMutability": "payable",
      "type": "function"
    },
    {
      "constant": false,
      "inputs": [
        {
          "name": "_bountyId",
          "type": "uint256"
        },
        {
          "name": "_tokenAddress",
          "type": "address"
        }
      ],
      "name": "createBountyERC20",
      "outputs": [],
      "payable": false,
      "stateMutability": "nonpayable",
      "type": "function"
    },
    {
      "constant": false,
      "inputs": [
        {
          "name": "_bountyId",
          "type": "uint256"
        }
      ],
      "name": "cancelBounty",
      "outputs": [],
      "payable": false,
      "stateMutability": "nonpayable",
      "type": "function"
    },
    {
      "constant": true,
      "inputs": [],
      "name": "getBalance",
      "outputs": [
        {
          "name": "",
          "type": "uint256"
        }
      ],
      "payable": false,
      "stateMutability": "view",
      "type": "function"
    },
    {
      "constant": true,
      "inputs": [
        {
          "name": "_bountyId",
          "type": "uint256"
        }
      ],
      "name": "getBounty",
      "outputs": [
        {
          "name": "",
          "type": "uint256"
        },
        {
          "name": "",
          "type": "address"
        },
        {
          "name": "",
          "type": "uint256"
        },
        {
          "name": "",
          "type": "uint256"
        },
        {
          "name": "",
          "type": "uint256"
        },
        {
          "name": "",
          "type": "uint256"
        },
        {
          "name": "",
          "type": "bool"
        },
        {
          "name": "",
          "type": "bool"
        }
      ],
      "payable": false,
      "stateMutability": "view",
      "type": "function"
    }
  ],
  "bytecode": "0x6080604052600060015566071afd498d0000600255662386f26fc1000060035560026007556201a5e06008556202a30060095534801561003e57600080fd5b50336000806101000a81548173ffffffffffffffffffffffffffffffffffffffff021916908373ffffffffffffffffffffffffffffffffffffffff16021790555061264c8061008e6000396000f30060806040526004361061013e576000357c0100000000000000000000000000000000000000000000000000000000900463ffffffff16806312065fe014610143578063179681341461016e57806319de029a146101bb578063200c7770146101e8578063387d49d4146102135780633b58f49a146102405780633e362c961461026d5780633f28e9fb1461029857806346db63d7146102b8578063487091831461030f5780635ac25f5b1461033a57806377b556941461038757806389b8db55146103b25780638da5cb5b146103dd5780639baf3b1114610434578063a101f7cd14610481578063a8a48ae8146104ac578063aca0c53b146104f9578063be35761614610550578063d9f41d7e1461057d578063e101ce70146105d4578063e5e5dff11461062b578063ee8c4bbf14610658578063f33b1ea5146106fe575b600080fd5b34801561014f57600080fd5b5061015861075b565b6040518082815260200191505060405180910390f35b34801561017a57600080fd5b506101b960048036038101908080359060200190929190803573ffffffffffffffffffffffffffffffffffffffff16906020019092919050505061077a565b005b3480156101c757600080fd5b506101e66004803603810190808035906020019092919050505061097a565b005b3480156101f457600080fd5b506101fd6109df565b6040518082815260200191505060405180910390f35b34801561021f57600080fd5b5061023e600480360381019080803590602001909291905050506109e5565b005b34801561024c57600080fd5b5061026b60048036038101908080359060200190929190505050610a4a565b005b34801561027957600080fd5b50610282610aaf565b6040518082815260200191505060405180910390f35b6102b660048036038101908080359060200190929190505050610ab5565b005b3480156102c457600080fd5b5061030d60048036038101908080359060200190929190803573ffffffffffffffffffffffffffffffffffffffff16906020019092919080359060200190929190505050610ce1565b005b34801561031b57600080fd5b50610324610ff6565b6040518082815260200191505060405180910390f35b34801561034657600080fd5b5061038560048036038101908080359060200190929190803573ffffffffffffffffffffffffffffffffffffffff169060200190929190505050610ffc565b005b34801561039357600080fd5b5061039c611707565b6040518082815260200191505060405180910390f35b3480156103be57600080fd5b506103c761170d565b6040518082815260200191505060405180910390f35b3480156103e957600080fd5b506103f2611713565b604051808273ffffffffffffffffffffffffffffffffffffffff1673ffffffffffffffffffffffffffffffffffffffff16815260200191505060405180910390f35b34801561044057600080fd5b5061047f600480360381019080803573ffffffffffffffffffffffffffffffffffffffff16906020019092919080359060200190929190505050611738565b005b34801561048d57600080fd5b506104966117db565b6040518082815260200191505060405180910390f35b3480156104b857600080fd5b506104f7600480360381019080803573ffffffffffffffffffffffffffffffffffffffff169060200190929190803590602001909291905050506117e1565b005b34801561050557600080fd5b5061053a600480360381019080803573ffffffffffffffffffffffffffffffffffffffff169060200190929190505050611884565b6040518082815260200191505060405180910390f35b34801561055c57600080fd5b5061057b600480360381019080803590602001909291905050506118cd565b005b34801561058957600080fd5b506105be600480360381019080803573ffffffffffffffffffffffffffffffffffffffff169060200190929190505050611a2e565b6040518082815260200191505060405180910390f35b3480156105e057600080fd5b50610615600480360381019080803573ffffffffffffffffffffffffffffffffffffffff169060200190929190505050611a77565b6040518082815260200191505060405180910390f35b34801561063757600080fd5b5061065660048036038101908080359060200190929190505050611a8f565b005b34801561066457600080fd5b5061068360048036038101908080359060200190929190505050611e75565b604051808981526020018873ffffffffffffffffffffffffffffffffffffffff1673ffffffffffffffffffffffffffffffffffffffff16815260200187815260200186815260200185815260200184815260200183151515158152602001821515151581526020019850505050505050505060405180910390f35b34801561070a57600080fd5b5061075960048036038101908080359060200190929190803590602001908201803590602001919091929391929390803590602001908201803590602001919091929391929390505050612032565b005b60003073ffffffffffffffffffffffffffffffffffffffff1631905090565b60008060009054906101000a900473ffffffffffffffffffffffffffffffffffffffff1673ffffffffffffffffffffffffffffffffffffffff163373ffffffffffffffffffffffffffffffffffffffff161415156107d757600080fd5b600660008373ffffffffffffffffffffffffffffffffffffffff1673ffffffffffffffffffffffffffffffffffffffff16815260200190815260200160002054831115151561082557600080fd5b82600660008473ffffffffffffffffffffffffffffffffffffffff1673ffffffffffffffffffffffffffffffffffffffff168152602001908152602001600020600082825403925050819055508190508073ffffffffffffffffffffffffffffffffffffffff1663a9059cbb6000809054906101000a900473ffffffffffffffffffffffffffffffffffffffff16856040518363ffffffff167c0100000000000000000000000000000000000000000000000000000000028152600401808373ffffffffffffffffffffffffffffffffffffffff1673ffffffffffffffffffffffffffffffffffffffff16815260200182815260200192505050602060405180830381600087803b15801561093957600080fd5b505af115801561094d573d6000803e3d6000fd5b505050506040513d602081101561096357600080fd5b810190808051906020019092919050505050505050565b6000809054906101000a900473ffffffffffffffffffffffffffffffffffffffff1673ffffffffffffffffffffffffffffffffffffffff163373ffffffffffffffffffffffffffffffffffffffff161415156109d557600080fd5b8060088190555050565b60085481565b6000809054906101000a900473ffffffffffffffffffffffffffffffffffffffff1673ffffffffffffffffffffffffffffffffffffffff163373ffffffffffffffffffffffffffffffffffffffff16141515610a4057600080fd5b8060078190555050565b6000809054906101000a900473ffffffffffffffffffffffffffffffffffffffff1673ffffffffffffffffffffffffffffffffffffffff163373ffffffffffffffffffffffffffffffffffffffff16141515610aa557600080fd5b8060038190555050565b60015481565b6000600254600354013410151515610acc57600080fd5b600a6000838152602001908152602001600020905060008160000154141515610af457600080fd5b600160008154809291906001019190505550818160000181905550600254340381600201819055508060020154816004018190555060008160030160006101000a81548160ff02191690836001811115610b4a57fe5b0217905550308160030160016101000a81548173ffffffffffffffffffffffffffffffffffffffff021916908373ffffffffffffffffffffffffffffffffffffffff160217905550600254600660003073ffffffffffffffffffffffffffffffffffffffff1673ffffffffffffffffffffffffffffffffffffffff16815260200190815260200160002060008282540192505081905550428160050181905550338160010160006101000a81548173ffffffffffffffffffffffffffffffffffffffff021916908373ffffffffffffffffffffffffffffffffffffffff1602179055507f23babfd039d586b6caf3dc1e2a2877007b714e2e0b4e6ace096cb2db62527c408160000154333460405180806020018581526020018473ffffffffffffffffffffffffffffffffffffffff1673ffffffffffffffffffffffffffffffffffffffff168152602001838152602001828103825260108152602001807f426f756e7479207375626d69747465640000000000000000000000000000000081525060200194505050505060405180910390a15050565b600080600085600a600082815260200190815260200160002060010160009054906101000a900473ffffffffffffffffffffffffffffffffffffffff1673ffffffffffffffffffffffffffffffffffffffff163373ffffffffffffffffffffffffffffffffffffffff16141515610d5757600080fd5b600a6000888152602001908152602001600020935084846004015410151515610d7f57600080fd5b84846004016000828254039250508190555060018460070160006101000a81548160ff02191690831515021790555042846006018190555060006001811115610dc457fe5b8460030160009054906101000a900460ff166001811115610de157fe5b1415610e33578573ffffffffffffffffffffffffffffffffffffffff166108fc869081150290604051600060405180830381858888f19350505050158015610e2d573d6000803e3d6000fd5b50610f3d565b8360030160019054906101000a900473ffffffffffffffffffffffffffffffffffffffff1692508291508173ffffffffffffffffffffffffffffffffffffffff1663a9059cbb87876040518363ffffffff167c0100000000000000000000000000000000000000000000000000000000028152600401808373ffffffffffffffffffffffffffffffffffffffff1673ffffffffffffffffffffffffffffffffffffffff16815260200182815260200192505050602060405180830381600087803b158015610f0057600080fd5b505af1158015610f14573d6000803e3d6000fd5b505050506040513d6020811015610f2a57600080fd5b8101908080519060200190929190505050505b7fb57b05cd907162c8a48d0e2cfe044234b9cf1e00620758f8ad57bccccd17bfba8460000154878760405180806020018581526020018473ffffffffffffffffffffffffffffffffffffffff1673ffffffffffffffffffffffffffffffffffffffff1681526020018381526020018281038252600b8152602001807f5265776172642073656e7400000000000000000000000000000000000000000081525060200194505050505060405180910390a150505050505050565b60075481565b60008060008392506000600560008673ffffffffffffffffffffffffffffffffffffffff1673ffffffffffffffffffffffffffffffffffffffff1681526020019081526020016000205411801561109257506000600460008673ffffffffffffffffffffffffffffffffffffffff1673ffffffffffffffffffffffffffffffffffffffff16815260200190815260200160002054115b80156112275750600460008573ffffffffffffffffffffffffffffffffffffffff1673ffffffffffffffffffffffffffffffffffffffff16815260200190815260200160002054600560008673ffffffffffffffffffffffffffffffffffffffff1673ffffffffffffffffffffffffffffffffffffffff16815260200190815260200160002054018373ffffffffffffffffffffffffffffffffffffffff1663dd62ed3e33306040518363ffffffff167c0100000000000000000000000000000000000000000000000000000000028152600401808373ffffffffffffffffffffffffffffffffffffffff1673ffffffffffffffffffffffffffffffffffffffff1681526020018273ffffffffffffffffffffffffffffffffffffffff1673ffffffffffffffffffffffffffffffffffffffff16815260200192505050602060405180830381600087803b1580156111e957600080fd5b505af11580156111fd573d6000803e3d6000fd5b505050506040513d602081101561121357600080fd5b810190808051906020019092919050505010155b151561123257600080fd5b8273ffffffffffffffffffffffffffffffffffffffff1663dd62ed3e33306040518363ffffffff167c0100000000000000000000000000000000000000000000000000000000028152600401808373ffffffffffffffffffffffffffffffffffffffff1673ffffffffffffffffffffffffffffffffffffffff1681526020018273ffffffffffffffffffffffffffffffffffffffff1673ffffffffffffffffffffffffffffffffffffffff16815260200192505050602060405180830381600087803b15801561130157600080fd5b505af1158015611315573d6000803e3d6000fd5b505050506040513d602081101561132b57600080fd5b810190808051906020019092919050505091508273ffffffffffffffffffffffffffffffffffffffff166323b872dd3330856040518463ffffffff167c0100000000000000000000000000000000000000000000000000000000028152600401808473ffffffffffffffffffffffffffffffffffffffff1673ffffffffffffffffffffffffffffffffffffffff1681526020018373ffffffffffffffffffffffffffffffffffffffff1673ffffffffffffffffffffffffffffffffffffffff1681526020018281526020019350505050602060405180830381600087803b15801561141557600080fd5b505af1158015611429573d6000803e3d6000fd5b505050506040513d602081101561143f57600080fd5b810190808051906020019092919050505050600a600086815260200190815260200160002090506000816000015414151561147957600080fd5b600160008154809291906001019190505550848160000181905550600460008573ffffffffffffffffffffffffffffffffffffffff1673ffffffffffffffffffffffffffffffffffffffff16815260200190815260200160002054820381600201819055508060020154816004018190555060018160030160006101000a81548160ff0219169083600181111561150c57fe5b0217905550838160030160016101000a81548173ffffffffffffffffffffffffffffffffffffffff021916908373ffffffffffffffffffffffffffffffffffffffff160217905550600460008573ffffffffffffffffffffffffffffffffffffffff1673ffffffffffffffffffffffffffffffffffffffff16815260200190815260200160002054600660008360030160019054906101000a900473ffffffffffffffffffffffffffffffffffffffff1673ffffffffffffffffffffffffffffffffffffffff1673ffffffffffffffffffffffffffffffffffffffff16815260200190815260200160002060008282540192505081905550428160050181905550338160010160006101000a81548173ffffffffffffffffffffffffffffffffffffffff021916908373ffffffffffffffffffffffffffffffffffffffff1602179055507f23babfd039d586b6caf3dc1e2a2877007b714e2e0b4e6ace096cb2db62527c408160000154338460405180806020018581526020018473ffffffffffffffffffffffffffffffffffffffff1673ffffffffffffffffffffffffffffffffffffffff1681526020018381526020018281038252601b8152602001807f426f756e7479207375626d69747465642077697468204552433230000000000081525060200194505050505060405180910390a15050505050565b60095481565b60035481565b6000809054906101000a900473ffffffffffffffffffffffffffffffffffffffff1681565b6000809054906101000a900473ffffffffffffffffffffffffffffffffffffffff1673ffffffffffffffffffffffffffffffffffffffff163373ffffffffffffffffffffffffffffffffffffffff1614151561179357600080fd5b80600460008473ffffffffffffffffffffffffffffffffffffffff1673ffffffffffffffffffffffffffffffffffffffff168152602001908152602001600020819055505050565b60025481565b6000809054906101000a900473ffffffffffffffffffffffffffffffffffffffff1673ffffffffffffffffffffffffffffffffffffffff163373ffffffffffffffffffffffffffffffffffffffff1614151561183c57600080fd5b80600560008473ffffffffffffffffffffffffffffffffffffffff1673ffffffffffffffffffffffffffffffffffffffff168152602001908152602001600020819055505050565b6000600560008373ffffffffffffffffffffffffffffffffffffffff1673ffffffffffffffffffffffffffffffffffffffff168152602001908152602001600020549050919050565b6000809054906101000a900473ffffffffffffffffffffffffffffffffffffffff1673ffffffffffffffffffffffffffffffffffffffff163373ffffffffffffffffffffffffffffffffffffffff1614151561192857600080fd5b600660003073ffffffffffffffffffffffffffffffffffffffff1673ffffffffffffffffffffffffffffffffffffffff16815260200190815260200160002054811115151561197657600080fd5b80600660003073ffffffffffffffffffffffffffffffffffffffff1673ffffffffffffffffffffffffffffffffffffffff168152602001908152602001600020600082825403925050819055506000809054906101000a900473ffffffffffffffffffffffffffffffffffffffff1673ffffffffffffffffffffffffffffffffffffffff166108fc829081150290604051600060405180830381858888f19350505050158015611a2a573d6000803e3d6000fd5b5050565b6000600460008373ffffffffffffffffffffffffffffffffffffffff1673ffffffffffffffffffffffffffffffffffffffff168152602001908152602001600020549050919050565b60066020528060005260406000206000915090505481565b6000806000600a600085815260200190815260200160002092508260010160009054906101000a900473ffffffffffffffffffffffffffffffffffffffff1673ffffffffffffffffffffffffffffffffffffffff163373ffffffffffffffffffffffffffffffffffffffff16148015611b1757508260070160009054906101000a900460ff16155b8015611b3257508260070160019054906101000a900460ff16155b8015611b8d57503373ffffffffffffffffffffffffffffffffffffffff168360010160009054906101000a900473ffffffffffffffffffffffffffffffffffffffff1673ffffffffffffffffffffffffffffffffffffffff16145b8015611ba0575042600854846005015401105b1515611bab57600080fd5b60018360070160006101000a81548160ff02191690831515021790555060018360070160016101000a81548160ff02191690831515021790555060006001811115611bf257fe5b8360030160009054906101000a900460ff166001811115611c0f57fe5b1415611c89578260010160009054906101000a900473ffffffffffffffffffffffffffffffffffffffff1673ffffffffffffffffffffffffffffffffffffffff166108fc84600201549081150290604051600060405180830381858888f19350505050158015611c83573d6000803e3d6000fd5b50611dbb565b8260030160019054906101000a900473ffffffffffffffffffffffffffffffffffffffff1691508190508073ffffffffffffffffffffffffffffffffffffffff1663095ea7b38460010160009054906101000a900473ffffffffffffffffffffffffffffffffffffffff1685600201546040518363ffffffff167c0100000000000000000000000000000000000000000000000000000000028152600401808373ffffffffffffffffffffffffffffffffffffffff1673ffffffffffffffffffffffffffffffffffffffff16815260200182815260200192505050602060405180830381600087803b158015611d7e57600080fd5b505af1158015611d92573d6000803e3d6000fd5b505050506040513d6020811015611da857600080fd5b8101908080519060200190929190505050505b7f23babfd039d586b6caf3dc1e2a2877007b714e2e0b4e6ace096cb2db62527c40836000015433856002015460405180806020018581526020018473ffffffffffffffffffffffffffffffffffffffff1673ffffffffffffffffffffffffffffffffffffffff168152602001838152602001828103825260138152602001807f426f756e7479207761732063616e63656c65640000000000000000000000000081525060200194505050505060405180910390a150505050565b600080600080600080600080611e89612591565b600a60008b81526020019081526020016000206101406040519081016040529081600082015481526020016001820160009054906101000a900473ffffffffffffffffffffffffffffffffffffffff1673ffffffffffffffffffffffffffffffffffffffff1673ffffffffffffffffffffffffffffffffffffffff168152602001600282015481526020016003820160009054906101000a900460ff166001811115611f3157fe5b6001811115611f3c57fe5b81526020016003820160019054906101000a900473ffffffffffffffffffffffffffffffffffffffff1673ffffffffffffffffffffffffffffffffffffffff1673ffffffffffffffffffffffffffffffffffffffff1681526020016004820154815260200160058201548152602001600682015481526020016007820160009054906101000a900460ff161515151581526020016007820160019054906101000a900460ff16151515158152505090508060000151816020015182604001518360a001518460c001518560e001518661010001518761012001519850985098509850985098509850985050919395975091939597565b600080600080600089600a600082815260200190815260200160002060010160009054906101000a900473ffffffffffffffffffffffffffffffffffffffff1673ffffffffffffffffffffffffffffffffffffffff163373ffffffffffffffffffffffffffffffffffffffff16148061211c57506000809054906101000a900473ffffffffffffffffffffffffffffffffffffffff1673ffffffffffffffffffffffffffffffffffffffff163373ffffffffffffffffffffffffffffffffffffffff1614801561211b575042600954600a60008481526020019081526020016000206005015401115b5b151561212757600080fd5b600a60008c815260200190815260200160002095508560070160009054906101000a900460ff1615801561216a57508560070160019054906101000a900460ff16155b801561217d575042600854876005015401115b801561218c575060008a8a9050115b801561219d57506007548a8a905011155b80156121ae5750878790508a8a9050145b15156121b957600080fd5b60018660070160006101000a81548160ff02191690831515021790555042866006018190555060009450600093505b878790508460ff16101561221f5787878560ff16818110151561220757fe5b905060200201358501945083806001019450506121e8565b8486600201541015151561223257600080fd5b60018081111561223e57fe5b8660030160009054906101000a900460ff16600181111561225b57fe5b141561228c578560030160019054906101000a900473ffffffffffffffffffffffffffffffffffffffff1692508291505b600093505b898990508460ff16101561258457600060018111156122ac57fe5b8660030160009054906101000a900460ff1660018111156122c957fe5b141561235f5789898560ff1681811015156122e057fe5b9050602002013573ffffffffffffffffffffffffffffffffffffffff1673ffffffffffffffffffffffffffffffffffffffff166108fc89898760ff16818110151561232757fe5b905060200201359081150290604051600060405180830381858888f19350505050158015612359573d6000803e3d6000fd5b50612483565b8173ffffffffffffffffffffffffffffffffffffffff1663a9059cbb8b8b8760ff16818110151561238c57fe5b9050602002013573ffffffffffffffffffffffffffffffffffffffff168a8a8860ff1681811015156123ba57fe5b905060200201356040518363ffffffff167c0100000000000000000000000000000000000000000000000000000000028152600401808373ffffffffffffffffffffffffffffffffffffffff1673ffffffffffffffffffffffffffffffffffffffff16815260200182815260200192505050602060405180830381600087803b15801561244657600080fd5b505af115801561245a573d6000803e3d6000fd5b505050506040513d602081101561247057600080fd5b8101908080519060200190929190505050505b7fb57b05cd907162c8a48d0e2cfe044234b9cf1e00620758f8ad57bccccd17bfba86600001548b8b8760ff1681811015156124ba57fe5b9050602002013573ffffffffffffffffffffffffffffffffffffffff168a8a8860ff1681811015156124e857fe5b9050602002013560405180806020018581526020018473ffffffffffffffffffffffffffffffffffffffff1673ffffffffffffffffffffffffffffffffffffffff1681526020018381526020018281038252600b8152602001807f5265776172642073656e7400000000000000000000000000000000000000000081525060200194505050505060405180910390a18380600101945050612291565b5050505050505050505050565b6101406040519081016040528060008152602001600073ffffffffffffffffffffffffffffffffffffffff16815260200160008152602001600060018111156125d657fe5b8152602001600073ffffffffffffffffffffffffffffffffffffffff16815260200160008152602001600081526020016000815260200160001515815260200160001515815250905600a165627a7a723058209f47bc7980213332a41ae42d2b1c2d45979be9c4386425fd02e0416044f8cbda0029",
  "source": "pragma solidity ^0.4.23;\r\nimport \"./ERC20Interface.sol\";\r\n\r\n\r\ncontract BountyBG {\r\n\r\n    address public owner;\r\n\r\n    uint256 public bountyCount = 0;\r\n    // uint256 public minBounty = 10 finney;\r\n    // uint256 public bountyFee = 2 finney;\r\n\r\n    uint256 public bountyFee = 2 finney;\r\n    uint256 public minBounty = 10 finney;\r\n    // my code: \r\n    // As the contract is supposed to support any ERC20 contract, the bountyFee and minBounty  \r\n    // parameter must be determined according to token introduced by bounty owner.\r\n    mapping (address => uint256) bountyFeeToken;\r\n    mapping (address => uint256) minBountyToken;\r\n\r\n    // my code: payment types are ether or erc20 type token\r\n    enum paymentType {ETHER, ERC20}\r\n\r\n    // uint256 public bountyFeeCount = 0;\r\n    // my code: bounty fees must be counted with respect to token payments\r\n    mapping (address => uint256) public bountyFeeCount;\r\n\r\n    uint256 public bountyBeneficiariesCount = 2;\r\n    uint256 public bountyDuration = 30 hours;\r\n    uint256 public bountyDurationPosterAllowed = 48 hours; // or whatever you need\r\n\r\n\r\n    mapping(uint256 => Bounty) bountyAt;\r\n\r\n    event BountyStatus(string _msg, uint256 _id, address _from, uint256 _amount);\r\n    event RewardStatus(string _msg, uint256 _id, address _to, uint256 _amount);\r\n    event ErrorStatus(string _msg, uint256 _id, address _to, uint256 _amount);\r\n\r\n    struct Bounty {\r\n        uint256 id;\r\n        address owner;\r\n        uint256 bounty;\r\n        \r\n        // my code :\r\n        // ParameterType: {'ETHER': payment is done by ethereum, 'ERC20': payment is done by any ERC20 Token.}\r\n        // token Address: {if the payment is done by an ERC20 Token, here the token address must be registered,\r\n        // -------------:  else, you can put the contract address or leave it blank.}\r\n        paymentType payment;\r\n        address tokenAddress;\r\n\r\n        uint256 remainingBounty;\r\n        uint256 startTime;\r\n        uint256 endTime;\r\n        bool ended;\r\n        bool retracted;\r\n    }\r\n\r\n    constructor() public {\r\n        owner = msg.sender;\r\n    }\r\n\r\n    modifier onlyOwner() {\r\n        require(msg.sender == owner);\r\n        _;\r\n    }\r\n\r\n    modifier onlyPoster(uint _bountyId) {\r\n        require(msg.sender == bountyAt[_bountyId].owner);\r\n        _;\r\n    }\r\n\r\n    modifier allowedToReward(uint _bountyId) {\r\n        require(\r\n            msg.sender == bountyAt[_bountyId].owner || \r\n            (msg.sender == owner && bountyAt[_bountyId].startTime + bountyDurationPosterAllowed > block.timestamp));\r\n        _;\r\n    }\r\n\r\n    // BLOCKGEEKS ACTIONS\r\n\r\n    function withdrawFee(uint256 _amount) external onlyOwner {\r\n        require(_amount <= bountyFeeCount[this]);\r\n        bountyFeeCount[this] -= _amount;\r\n        owner.transfer(_amount);\r\n    }\r\n\r\n    // my code: Now owner can also withdraw fees by other ERC20 tokens.\r\n    // @_tokenAddress: ERC20 token Address\r\n    function withdrawFeeToken(uint256 _amount, address _tokenAddress) external onlyOwner{\r\n        require(_amount <= bountyFeeCount[_tokenAddress]);\r\n        bountyFeeCount[_tokenAddress] -= _amount;\r\n        ERC20Interface token = ERC20Interface(_tokenAddress);\r\n        token.transfer(owner, _amount);\r\n    }\r\n\r\n    function setBountyDuration(uint256 _bountyDuration) external onlyOwner {\r\n        bountyDuration = _bountyDuration;\r\n    }\r\n\r\n    function setMinBounty(uint256 _minBounty) external onlyOwner {\r\n        minBounty = _minBounty;\r\n    }\r\n\r\n    // my code: Now for any ERC20 token owner can determine minimum bounty amount.\r\n    // @tokenAddress: the token contract address.\r\n    // @_minBounty: minimum bounty amount in token unit.\r\n    function setMinBountyToken(address _tokenAddress, uint256 _minBounty) external onlyOwner {\r\n        minBountyToken[_tokenAddress] = _minBounty;\r\n    }\r\n\r\n    function getMinBountyToken(address _tokenAddress) public view returns(uint256) {\r\n        return minBountyToken[_tokenAddress];\r\n    }\r\n\r\n    // my code: Now for any ERC20 token owner can determine bounty fee amount.\r\n    // @tokenAddress: the token contract address.\r\n    // @_bountyFee: bounty Fee in token unit.\r\n    function setBountyFeeToken(address _tokenAddress, uint256 _bountyFee) external onlyOwner {\r\n        bountyFeeToken[_tokenAddress] = _bountyFee;\r\n    }\r\n\r\n    function getBountyFeeToken(address _tokenAddress) public view returns (uint256) {\r\n        return bountyFeeToken[_tokenAddress];\r\n    }\r\n\r\n    function setBountyBeneficiariesCount(uint256 _bountyBeneficiariesCount) external onlyOwner {\r\n        bountyBeneficiariesCount = _bountyBeneficiariesCount;\r\n    }\r\n\r\n    // code changed: rewardUsers now support payment in any ERC20 token.\r\n    function rewardUsers(uint256 _bountyId, address[] _users, uint256[] _rewards) external allowedToReward(_bountyId) {\r\n        Bounty storage bounty = bountyAt[_bountyId];\r\n        require(\r\n            !bounty.ended &&\r\n            !bounty.retracted &&\r\n            bounty.startTime + bountyDuration > block.timestamp &&\r\n            _users.length > 0 &&\r\n            _users.length <= bountyBeneficiariesCount &&\r\n            _users.length == _rewards.length\r\n        );\r\n\r\n        bounty.ended = true;\r\n        bounty.endTime = block.timestamp;\r\n        uint256 currentRewards = 0;\r\n        for (uint8 i = 0; i < _rewards.length; i++) {\r\n            currentRewards += _rewards[i];\r\n        }\r\n\r\n        require(bounty.bounty >= currentRewards);\r\n\r\n        if (bounty.payment == paymentType.ERC20) {\r\n            address tokenAddress = bounty.tokenAddress;\r\n            ERC20Interface token = ERC20Interface(tokenAddress);\r\n        }\r\n\r\n        for (i = 0; i < _users.length; i++) {\r\n            if (bounty.payment == paymentType.ETHER) {\r\n                _users[i].transfer(_rewards[i]);    \r\n            } else {\r\n                token.transfer(_users[i], _rewards[i]);\r\n            }\r\n            \r\n            emit RewardStatus(\"Reward sent\", bounty.id, _users[i], _rewards[i]);\r\n            /* if (_users[i].send(_rewards[i])) {\r\n                bounty.remainingBounty -= _rewards[i];\r\n                RewardStatus('Reward sent', bounty.id, _users[i], _rewards[i]);\r\n            } else {\r\n                ErrorStatus('Error in reward', bounty.id, _users[i], _rewards[i]);\r\n            } */\r\n        }\r\n    }\r\n\r\n    // code changed: rewardUser now support payment in any ERC20 token.\r\n    function rewardUser(uint256 _bountyId, address _user, uint256 _reward) external onlyPoster(_bountyId) {\r\n        Bounty storage bounty = bountyAt[_bountyId];\r\n        require(bounty.remainingBounty >= _reward);\r\n        \r\n        bounty.remainingBounty -= _reward;\r\n        bounty.ended = true;\r\n        bounty.endTime = block.timestamp;\r\n        \r\n        if (bounty.payment == paymentType.ETHER) {\r\n            _user.transfer(_reward);\r\n        } else {\r\n            address tokenAddress = bounty.tokenAddress;\r\n            ERC20Interface token = ERC20Interface(tokenAddress);\r\n            token.transfer(_user, _reward);\r\n        }\r\n\r\n        emit RewardStatus(\"Reward sent\", bounty.id, _user, _reward);\r\n    }\r\n\r\n    // USER ACTIONS TRIGGERED BY METAMASK\r\n\r\n    function createBounty(uint256 _bountyId) external payable {\r\n        require(\r\n            msg.value >= minBounty + bountyFee\r\n        );\r\n        Bounty storage bounty = bountyAt[_bountyId];\r\n        require(bounty.id == 0);\r\n        bountyCount++;\r\n        bounty.id = _bountyId;\r\n        bounty.bounty = msg.value - bountyFee;\r\n        bounty.remainingBounty = bounty.bounty;\r\n        bounty.payment = paymentType.ETHER;\r\n        bounty.tokenAddress = this;\r\n        bountyFeeCount[this] += bountyFee;\r\n        bounty.startTime = block.timestamp;\r\n        bounty.owner = msg.sender;\r\n        emit BountyStatus(\"Bounty submitted\", bounty.id, msg.sender, msg.value);\r\n    }\r\n\r\n    // my code: createBountyERC20 is added for when one can create a new bounty but to pay in an ERC20 token\r\n    // @_tokenAddress: ERC20 token address which by payment will be done.\r\n    ///// not needed to be payable (important)\r\n    function createBountyERC20(uint256 _bountyId, address _tokenAddress) external {\r\n        ERC20Interface token = ERC20Interface(_tokenAddress);\r\n        require(\r\n            minBountyToken[_tokenAddress] > 0 &&\r\n            bountyFeeToken[_tokenAddress] > 0 &&\r\n            token.allowance(msg.sender, this) >= minBountyToken[_tokenAddress] + bountyFeeToken[_tokenAddress]\r\n        );\r\n        uint256 bountyAmount = token.allowance(msg.sender, this);\r\n        token.transferFrom(msg.sender, this, bountyAmount);\r\n        Bounty storage bounty = bountyAt[_bountyId];\r\n        require(bounty.id == 0);\r\n        bountyCount++;\r\n        bounty.id = _bountyId;\r\n        bounty.bounty = bountyAmount - bountyFeeToken[_tokenAddress];\r\n        bounty.remainingBounty = bounty.bounty;\r\n        bounty.payment = paymentType.ERC20;\r\n        bounty.tokenAddress = _tokenAddress;\r\n        bountyFeeCount[bounty.tokenAddress] += bountyFeeToken[_tokenAddress];\r\n        bounty.startTime = block.timestamp;\r\n        bounty.owner = msg.sender;\r\n        emit BountyStatus(\"Bounty submitted with ERC20\", bounty.id, msg.sender, bountyAmount);\r\n    }\r\n\r\n    // code changed: cancelBounty now support payments with any ERC20 token.\r\n    function cancelBounty(uint256 _bountyId) external {\r\n        Bounty storage bounty = bountyAt[_bountyId];\r\n        require(\r\n            msg.sender == bounty.owner &&\r\n            !bounty.ended &&\r\n            !bounty.retracted &&\r\n            bounty.owner == msg.sender &&\r\n            bounty.startTime + bountyDuration < block.timestamp\r\n        );\r\n        bounty.ended = true;\r\n        bounty.retracted = true;\r\n        if (bounty.payment == paymentType.ETHER) {\r\n            bounty.owner.transfer(bounty.bounty);\r\n        } else {\r\n            address tokenAddress = bounty.tokenAddress;\r\n            ERC20Interface token = ERC20Interface(tokenAddress);\r\n            token.approve(bounty.owner, bounty.bounty);\r\n        }\r\n        emit BountyStatus(\"Bounty was canceled\", bounty.id, msg.sender, bounty.bounty);\r\n    }\r\n\r\n    // CUSTOM GETTERS\r\n\r\n    function getBalance() external view returns (uint256) {\r\n        return address(this).balance;\r\n    }\r\n\r\n    function getBounty(uint256 _bountyId) external view\r\n    returns (uint256, address, uint256, uint256, uint256, uint256, bool, bool) {\r\n        Bounty memory bounty = bountyAt[_bountyId];\r\n        return (\r\n            bounty.id,\r\n            bounty.owner,\r\n            bounty.bounty,\r\n            bounty.remainingBounty,\r\n            bounty.startTime,\r\n            bounty.endTime,\r\n            bounty.ended,\r\n            bounty.retracted\r\n        );\r\n    }\r\n}",
  "sourcePath": "G:\\Root\\Blockchain\\BountyBG Web3\\contracts\\bountyBg.sol",
  "compiler": {
    "name": "solc",
    "version": "0.4.23+commit.124ca40d.Emscripten.clang"
  },
  "schemaVersion": "2.0.0",
  "updatedAt": "2018-08-06T11:06:27.700Z"
}